:020000040000fa
:080000000002040000000000f2
:020000040000fa
:04000800760300007b
:020000040000fa
:04000c008e0300005f
:020000040000fa
:04001000a603000043
:020000040000fa
:040014007e03000067
:020000040000fa
:04001800960300004b
:020000040000fa
:04001c009e0300003f
:020000040000fa
:04002000ae0300002b
:020000040000fa
:0400240030040000a4
:020000040000fa
:0400280030040000a0
:020000040000fa
:04002c00300400009c
:020000040000fa
:040030003004000098
:020000040000fa
:040034003004000094
:020000040000fa
:040038003004000090
:020000040000fa
:04003c00300400008c
:020000040000fa
:040040003004000088
:020000040000fa
:04004400b6030000ff
:020000040000fa
:040048003004000080
:020000040000fa
:04004c00300400007c
:020000040000fa
:040050003004000078
:020000040000fa
:040054003004000074
:020000040000fa
:040058003004000070
:020000040000fa
:04005c000604000096
:020000040000fa
:040060003004000068
:020000040000fa
:040064003004000064
:020000040000fa
:040068003004000060
:020000040000fa
:04006c00300400005c
:020000040000fa
:040070003004000058
:020000040000fa
:04007400da030000ab
:020000040000fa
:040078003004000050
:020000040000fa
:04007c00300400004c
:020000040000fa
:040080003004000048
:020000040000fa
:040084003004000044
:020000040000fa
:040088003004000040
:020000040000fa
:04008c00300400003c
:020000040000fa
:040090003004000038
:020000040000fa
:040094003004000034
:020000040000fa
:040098003004000030
:020000040000fa
:04009c00300400002c
:020000040000fa
:0400a0003004000028
:020000040000fa
:0400a4003004000024
:020000040000fa
:0400a8003004000020
:020000040000fa
:0400ac00300400001c
:020000040000fa
:0400b0003004000018
:020000040000fa
:0400b4003004000014
:020000040000fa
:0400b8003004000010
:020000040000fa
:0400bc00300400000c
:020000040000fa
:0400c0003004000008
:020000040000fa
:0400c4003004000004
:020000040000fa
:0400c8003004000000
:020000040000fa
:0400cc0030040000fc
:020000040000fa
:0400d00030040000f8
:020000040000fa
:0400d40030040000f4
:020000040000fa
:0400d80030040000f0
:020000040000fa
:0400dc0030040000ec
:020000040000fa
:0400e00030040000e8
:020000040000fa
:0400e40030040000e4
:020000040000fa
:0400e80030040000e0
:020000040000fa
:0400ec0030040000dc
:020000040000fa
:0400f00030040000d8
:020000040000fa
:0400f40030040000d4
:020000040000fa
:0400f80030040000d0
:020000040000fa
:0400fc0030040000cc
:020000040000fa
:0401000030040000c7
:020000040000fa
:0401040030040000c3
:020000040000fa
:0401080030040000bf
:020000040000fa
:04010c0030040000bb
:020000040000fa
:0401100030040000b7
:020000040000fa
:0401140030040000b3
:020000040000fa
:0401180030040000af
:020000040000fa
:04011c0030040000ab
:020000040000fa
:0401200030040000a7
:020000040000fa
:0401240030040000a3
:020000040000fa
:04012800300400009f
:020000040000fa
:04012c00300400009b
:020000040000fa
:040130003004000097
:020000040000fa
:040134003004000093
:020000040000fa
:04013800300400008f
:020000040000fa
:04013c00300400008b
:020000040000fa
:040140003004000087
:020000040000fa
:040144003004000083
:020000040000fa
:04014800300400007f
:020000040000fa
:04014c00300400007b
:020000040000fa
:040150003004000077
:020000040000fa
:040154003004000073
:020000040000fa
:04015800300400006f
:020000040000fa
:04015c00300400006b
:020000040000fa
:040160003004000067
:020000040000fa
:040164003004000063
:020000040000fa
:04016800300400005f
:020000040000fa
:04016c00300400005b
:020000040000fa
:040170003004000057
:020000040000fa
:040174003004000053
:020000040000fa
:04017800300400004f
:020000040000fa
:04017c00300400004b
:020000040000fa
:040180003004000047
:020000040000fa
:040184003004000043
:020000040000fa
:04018800300400003f
:020000040000fa
:04018c00300400003b
:020000040000fa
:040190003004000037
:020000040000fa
:040194003004000033
:020000040000fa
:04019800300400002f
:020000040000fa
:04019c00300400002b
:020000040000fa
:0401a0003004000027
:020000040000fa
:0401a4003004000023
:020000040000fa
:0401a800300400001f
:020000040000fa
:0401ac00300400001b
:020000040000fa
:0401b0003004000017
:020000040000fa
:0401b4003004000013
:020000040000fa
:0401b800300400000f
:020000040000fa
:0401bc00300400000b
:020000040000fa
:0401c0003004000007
:020000040000fa
:0401c4003004000003
:020000040000fa
:0401c80030040000ff
:020000040000fa
:0401cc0030040000fb
:020000040000fa
:0401d00030040000f7
:020000040000fa
:0401d40030040000f3
:020000040000fa
:0401d80030040000ef
:020000040000fa
:0401dc0030040000eb
:020000040000fa
:0401e00030040000e7
:020000040000fa
:0401e40030040000e3
:020000040000fa
:0401e80030040000df
:020000040000fa
:0401ec0030040000db
:020000040000fa
:0401f00030040000d7
:020000040000fa
:0401f40030040000d3
:020000040000fa
:0401f80030040000cf
:020000040000fa
:0401fc0030040000cb
:020000040000fa
:0402000030040000c6
:020000040000fa
:0402040030040000c2
:020000040000fa
:0402080030040000be
:020000040000fa
:04020c0030040000ba
:020000040000fa
:0402100030040000b6
:020000040000fa
:0402140030040000b2
:020000040000fa
:0402180030040000ae
:020000040000fa
:04021c0030040000aa
:020000040000fa
:0402200030040000a6
:020000040000fa
:0402240030040000a2
:020000040000fa
:04022800300400009e
:020000040000fa
:04022c00300400009a
:020000040000fa
:040230003004000096
:020000040000fa
:040234003004000092
:020000040000fa
:04023800300400008e
:020000040000fa
:04023c00300400008a
:020000040000fa
:040240003004000086
:020000040000fa
:040244003004000082
:020000040000fa
:04024800300400007e
:020000040000fa
:04024c00300400007a
:020000040000fa
:040250003004000076
:020000040000fa
:040254003004000072
:020000040000fa
:04025800300400006e
:020000040000fa
:04025c00300400006a
:020000040000fa
:040260003004000066
:020000040000fa
:040264003004000062
:020000040000fa
:04026800300400005e
:020000040000fa
:04026c00300400005a
:020000040000fa
:040270003004000056
:020000040000fa
:040274003004000052
:020000040000fa
:04027800300400004e
:020000040000fa
:04027c00300400004a
:020000040000fa
:040280003004000046
:020000040000fa
:100400002f5f22000eff27000e0188000000000071
:10041000000020000000e000020032000001200087
:1004200020028800140007000f0107000000e00010
:1004300003003a00a0fb2200010020000200370068
:100440000000200001002000810f70000100320038
:100450000f000700000020000000e0000200320052
:100460000000020000000000f02002000000000078
:100470000040da000000fe00400620000000e0001e
:1004800002003200002020009001880000000600d9
:10049000a1028800800478000000eb001f003700f4
:1004a000e284440054a0b4009905ba00e2844400f8
:1004b00054a0b4009906ba00e284440054a0b400e9
:1004c0000006eb00476fde00fd07b200ae018800ba
:1004d000636ce10003003a000ad801000000eb0061
:1004e0000e003700606ce10008003a00004deb00a0
:1004f0000a05e800020039003420ec000af0a000f0
:100500008b05e900f9ff3e00040037006168e10057
:10051000010032000086eb000b00070019c7ba008b
:100520000e04e0001905ba0003003a000a00e000da
:10053000dbff3a0000000600fe07b200ae028800b2
:100540008a047800f5ff37000cd0a300e20f4d00bd
:100550001c003b0089027800354dba000a05e8000e
:10056000020039003420ec000af0a0008b05e900fd
:100570000f003200254dba000a05e80002003900dc
:100580003420ec000af0a0008b05e90008003200de
:100590000c00e0000600320015cdba000a05e800a4
:1005a000020039003420ec000af0a0008b05e900bd
:1005b0008984e80054a0b4000b00e000e2ff3a0098
:1005c000000006009902ba00055d78008b05e9007d
:1005d000f7ff3200c82ade00055d78008b05e900d0
:1005e000f3ff32000c00e000f1ff320019ddba0029
:1005f000eeff3700fc30040000000000f63004007d
:1006000000000000e830040000000000e2300400b8
:1006100000000000d82e040000000000de2e0400c0
:1006200000000000e22e040000000000e62e04009e
:10063000000000003c2a04000000000046290400dd
:1006400000000000b829040000000000062b040090
:100650000000000028250400000000001e25040002
:1006600000000000923004000000000094300400fc
:1006700000000000963004000000000098300400e4
:10068000000000009a300400000000009c300400cc
:1006900000000000ac1a040000000000ba1a0400b8
:1006a00000000000ce1f0400000000002e1f040008
:1006b00000000000e61c040000000000501e0400c2
:1006c00000000000dc0e040000000000620e0400c8
:1006d000000000002412040000000000d8120400f2
:1006e00000000000aa1a0400000000003600f80014
:1006f000c028a9000000eb00e01607003600f80053
:10070000005d220080077800805e220000018800e2
:10071000c048a90010002000d81607003600f800d5
:10072000c068a90020002000d41607003600f80099
:10073000c088a90030002000d01607003600f8005d
:10074000c0a8a90040002000cc1607003600f80021
:10075000c608a90070002000c81607003600f8007f
:10076000c488a900a0002000c41607003600f800c5
:10077000809fbe00829fbe00849fbe00869fbe00f9
:100780003e0f0700105f22001048e80011c0b300c0
:10079000005f22000148780000e8a9004f03be0076
:1007a0004f02be004f01be004f00be003600f900f0
:1007b000004006003600f800809fbe00829fbe0009
:1007c000849fbe00869fbe000268ab0006003a0010
:1007d0004f03be004f02be004f01be004f00be00df
:1007e0003600f900004006000268a9005510070015
:1007f0004f03be004f02be004f01be004f00be00bf
:100800003600f90000400600f7ff37003600f80018
:10081000809fbe00829fbe00849fbe00869fbe0058
:100820003200f8003400f80010002000a001880019
:100830000020200000d0fe0001a8a9003810070009
:100840003400f9003200f9004f03be004f02be0031
:100850004f01be004f00be003600f9000040060008
:100860000040da000000fe00000005008f1fd100ec
:10087000350207008f87e9000000e0000000060055
:10088000809feb00300207008f87e9000000e00046
:10089000000006001400200066023700f4ff2f005d
:1008a000640237000001be00220007000470a700a8
:1008b00003f0a1006509b100160032000d003500fb
:1008c0006828e10006003500f0ff2f00f1ff270047
:1008d0000300e00013003b000100280000000500b9
:1008e00000004000818048008502e900fcff3a00da
:1008f00008003700f88f420002003c008000eb0047
:10090000000005008100d1000080d3008502e800ce
:10091000fcff3a000300e00002003b006000100012
:10092000e0801800000006004f89de008201780098
:100930005b023700c70ade00f107b200f50fb20014
:1009400008003200e1cf4200020032000170a00036
:1009500024000500810f700001003200040805002a
:1009600044000500810f700002003a0014000500e9
:100970008502e9000000400081c04800fcff3b0008
:100980000170a0002400050007f82700078361001c
:100990000638e10004003a00f70720008783610071
:1009a0008703710001003a0003f0a200889fbe0097
:1009b0008a9fbe008c9fbe00470ade000480a10013
:1009c000c71ade000580a100070028000785600027
:1009d00087856100f70f20000720e1009e003200ac
:1009e0000728e1009c003200010678000400e000c6
:1009f000b4003200f7072000878060000170a0007b
:100a00000500e000c0003200f70720008781610088
:100a10000370a000050652000f003a000b50e100e1
:100a20000b0032000308e10002003a000200e1007e
:100a30007e0032000204500083845800040031001c
:100a40000001fd008101fd008402fd008a05fd001a
:100a50006044b800210037000520e10005003d009a
:100a60000001fd008101fd008402fd008a05fd00fa
:100a7000050652007a60e100050035000170a10012
:100a80004722dd00848070008a8070006300370098
:100a90006044b800ef02660007ff2f0007066600fb
:100aa0000500e00006003400f08312008714dd002a
:100ab0000511de00071bdd00060171008519de004f
:100ac0007060e100050035000904780082047800b8
:100ad000030178008001eb00700656000b50e10026
:100ae00003003a0002004000838048000400370001
:100af00060041400e0841c00020058008380580049
:100b00000188a300060032008100d1000080d300dc
:100b10008984d3000884d3000402e800270037004a
:100b20000178a30025003a000100e0000300320034
:100b30008186cf00698656000a0037008c002000ad
:100b40000000e00004003a00090078008804780002
:100b50000004eb00700252008086cf000d064600b4
:100b60000c06e9007060e1000600350080007800a6
:100b700009007800880478000004eb007006560035
:100b8000700252000c00e0000c0034008c08dd0004
:100b9000f00316000703de00868070000c00dd0005
:100ba000074bde00060070008c4cdd000743de00c2
:100bb000868474000c44dd000c0252006120e100c8
:100bc0002000350061016000070028008781640073
:100bd000f7ff270087836400070374000300e00029
:100be0000600320082037300040032000000e800b7
:100bf000e08048000188a3000e003a00f70f2000b3
:100c00000720e1004a003d000170a1004722dd00fd
:100c1000810072008a8070000000be004f06be0096
:100c20004f05be004f04be00000006006000b80083
:100c3000faff37008100d1000080d3000402e800f1
:100c4000eeff37000401780089017400c20007003c
:100c50008a807000f1ff3700180107000702780052
:100c60000001fd008101fd001401070087027800ea
:100c7000850372000778a300040032000001fd0024
:100c80008101fd0027010700e4ff370085036200b2
:100c90000768a300080032000b50e1000300320097
:100ca000f0ff2f00f1ff2700dcff37000001fd00ff
:100cb0008101fd00d9ff37000468a300d7ff32008f
:100cc000faff3700f8ff2700888360000b003a0026
:100cd0000000e00009003a0083036400828373008f
:100ce000020032000200be00ccff37000b50e100d2
:100cf000ceff3a000200be00c8ff370014002000fb
:100d0000810064003eff3700f8ff27008883610000
:100d100004003a000200e00002003a008c00780073
:100d2000beff3700150020008301640039ff370043
:100d300001f827000000200081007500b7ff370090
:100d4000038368000700280007036300470ade00ea
:100d50000480a100c71ade000580a100f70f200063
:100d60000720e100420032000728e1004000320085
:100d7000889fbe008a9fbe008c1f7800f107b200da
:100d8000f307b2000400e000640032000170a0002c
:100d90000500e000680032000370a00085054200f5
:100da000eb07b1000204b8000302b80084844400d9
:100db00060854a00020ab800848444000a854a001b
:100dc000030ab80004054500040033000804d000fd
:100dd0008984d2000a85d2008b05e9006158e100c0
:100de0003d003500021020000901610003082000c9
:100df00089816100f70720008783640008867300fb
:100e0000c84cde00c853dd00878474004855de00fe
:100e10000300e00006003200820376000400320086
:100e20008904e80060054d000a88a3000c003a0020
:100e3000f70f20000758e10044003d000a70a100b0
:100e4000c75ddd000a8575008a007300090078001f
:100e50004f0678004f05be004f04be00000006009c
:100e60000a05d1008984d3008b05e800f0ff370024
:100e7000881f7800060478009000070007027800b9
:100e80000001fd008101fd008c0007008702780051
:100e9000850372000778a300050032000001fd0001
:100ea0008101fd009f0007004f047800000006004c
:100eb000850372000748a30003003200f0ff2f00f3
:100ec000f1ff2700f8ff37000000200001f827009d
:100ed00088807000f4ff3700880178004848dd0002
:100ee000808171004848de00c850dd0001007000bc
:100ef000c850de00060478000b01780016000700d9
:100f000088807000d2ff37000500e0000500320045
:100f1000170020003a0007009dff37008103700092
:100f2000f9ff3a00860078004f0678004f05be00b2
:100f30004f04be000000050083037100f9ff32007a
:100f4000270020002e00070094ff370001f827003b
:100f500086807000f4ff37000100e00026003200b8
:100f6000610111007810e10023003c006022b8000c
:100f70007010e10004003500800278000100780064
:100f80008000eb00700151000200e0000900340015
:100f900070031100062add00822ade008603dd00d0
:100fa000878272000200de00860bdd000700700001
:100fb0008208de0084817100f4ff27000482620051
:100fc0008481710004002800848262006102600054
:100fd00005f0a60000000600048271000700320040
:100fe0000000e800e0804800000006000002be00ab
:100ff0006000b800efff37006000b8000000060096
:10100000889fbe000004eb006138e10016003a0042
:101010000100e00008003a00c800de004800dd00e2
:10102000880020000100e00003003a00c800de0054
:101030004800dd00680444008184cf00e984540046
:10104000060034008908dd00f08314008703de0009
:10105000878070000900dd0009044400610214006b
:101060004f04be00000006000300e00008003a0044
:10107000c811de004811dd00880020000300e000f8
:1010800003003a00c811de004811dd006804440086
:101090008384cf00e9845400060034008919dd0000
:1010a000f08314008713de00878171000911dd00d1
:1010b00009044400e1021400e9ff37002700200082
:1010c00001f0a70017002000470bde00f60fb2006a
:1010d000040032000643e8000a0032004702b30071
:1010e0000000060001037800f607b2000603700056
:1010f00002003a000703b300000006008702b300b5
:101100000000060001037800f607b2000603700035
:10111000020032000770a000000006000760a00077
:10112000000006000478a300040032000578a30044
:10113000030032000168a30001003a000200be0073
:101140000160a00000000600889fbe008a9fbe00cc
:101150008c9fbe000404be000605be00809fbe003a
:10116000829fbe0021000700040678000800be0030
:101170000a01be001d000700840678004f03be0070
:101180004f02be008d4f76007fb0970013003300f2
:10119000f0ff2f008b8f6b0006003b000d066600f2
:1011a0000c00a7000a00370007f0a600100020007e
:1011b0000a003700880f5200898f5a008a0f5b009f
:1011c0008b8f5b00030039001000200001003e00ff
:1011d0000000200007f0a7000000ea004f06be0054
:1011e0004f05be004f04be000000060005ff2700ab
:1011f00005826100070032000428e100010032008e
:10120000240005000600070001003a004400050024
:101210000408050002000700f9ff3a001400050069
:101220006f82610081027000850271008502720088
:1012300000000600889fbe008a9fbe00841f7800c1
:101240007c0007004f00780011003300f0ff2f00f2
:10125000838f6c0006003b00040565000a00a700b0
:101260000800370009f0a600100020000800370031
:10127000820f5400838f5c000300390010002000af
:1012800001003e000000200009f0a7000000ea0075
:101290004f05be004f04be000000e0000000060045
:1012a000881f7800030478000300e00007003d0079
:1012b00060001000e080180060011900e081190052
:1012c00002003b0001f02d0003003700040007007e
:1012d00008f0a70001f0a0004f047800000006000d
:1012e000889fbe008a9fbe000082700004027100c9
:1012f00004827100260032000004be000200be001d
:101300006011b8006b092000950220000182cf0017
:101310000a0039000541b1000082cf000700390002
:101320000541b1000982cf00040039000541b10038
:101330000882cf00010039000541b100054252008a
:10134000120032000a003b008281710061016400da
:101350008100d1000080d3008984d3000884d300a9
:101360008b05e8000442e800f7ff3a000700370069
:101370000804440089844c00000048008180480033
:101380008b05e9000442e900f9ff3a000300070079
:101390004f05be004f04be00000006008100200083
:1013a000618055000b003d000b00200061fe2f0006
:1013b0000100e1001d0034008281710061016400c0
:1013c0008904d1000884d3000000e800faff3a0045
:1013d00071002000610064000300700002006000e2
:1013e0000900320061044400e0844c000988a50033
:1013f000050032008b05e8006808e10002003a00b1
:101400008904d1000884d300f20f20000258e100c3
:1014100005003d00c75ddd00f907b2008980750059
:1014200008007800000006000bf827008b00780009
:10143000000005000004be003efd07000003be00e2
:101440000405be000200be003afd0700844f75008f
:041450000000060092
:020000040000fa
:1014540001c3000041c3000001c3000041c30000f8
:1014640001c1000001c3000001c1000001c300006c
:1014740001c3000001c3000001c1000001c100005c
:1014840041c3000041c3000001c3000001c30000c8
:1014940001c3000001c1000041c3000001c30000fa
:1014a40001c3000001c1000041c3000001c30000ea
:1014b400ffff0000dc0e0000620e0000241200009a
:1014c400d8120000aa1a000000000000000000006a
:1014d4000000000000000000000000000000000008
:1014e4000100000042250000000000000000000090
:1014f40041700000722000003237000020320000ea
:101504003031000038300000383a00003134000037
:081514003a310000370000002d
:020000040000fa
:10151c001800fa00889fbe008a9fbe008c1f7800be
:10152c0000067800f4af9f0085b79f0096b79f0028
:10153c00a7b79f002c709000ef4060000068a300dc
:10154c000b003200e4cf50003b003200e8cf5000db
:10155c004e0032000046eb000c4078004f0678003d
:10156c004f05be004f04be000080fa0000000600cc
:10157c000058a30018003200e2cf50006700320080
:10158c008c003e00e1cf5000f2ff3a008c699000d5
:10159c000c6090006fda97003c299000e10f51002d
:1015ac00250132000046eb0080cf5100eaff3400e9
:1015bc0001467800844f5000e6ff35000c4078005f
:1015cc004f0678004f05be004f04be000080fa00a5
:1015dc0000000600e6ff3700e2cf50006200320048
:1015ec00a6003e00e1cf5000daff3a008c69900073
:1015fc000c6090006fda97003c299000e10f5100cd
:10160c00000132000046eb0080cf5100d2ff3600c3
:10161c0001467800844f5000ceff39000c40780012
:10162c004f0678004f05be004f04be000080fa0044
:10163c0000000600ceff37004c109000dc1090002c
:10164c000c1490009c1490007fad97008fb5970000
:10165c003c2e9000e10f5600870132000801be00bd
:10166c008bfc07000000e000baff34001cc0b30084
:10167c000801be000a00be0083fc07000000e00069
:10168c00b5ff34000046eb00b3ff37004c10900060
:10169c00dc1090006c119000fc1190000c14900068
:1016ac009c1490002c159000bc1590007faa9700fc
:1016bc008fb297001fb39700afb39700b4b79f00da
:1016cc00c5b79f00d6b79f00e7b79f003c2e900090
:1016dc00e10f5600530132000802be000a03be009f
:1016ec0064fc07000000e0009aff34001cc0b3004b
:1016fc000802be000a03be003fb09700cfb09700af
:10170c005fb19700efb1970055fc07000000e000b7
:10171c0091ff34000046eb008fff37004c11900016
:10172c000c109000ffa99700bc289000e18f50008e
:10173c00db0032000046eb00800f510086ff3400c6
:10174c001cc0b300830f500082ff35000c407800a2
:10175c004f0678004f05be004f04be000080fa0013
:10176c000000060082ff37004c1190000c10900016
:10177c00ffa99700bc289000e18f5000bb003200fd
:10178c000046eb00800f510073ff36001cc0b30005
:10179c00830f50006fff39000c4078004f06780023
:1017ac004f05be004f04be000080fa00000006008a
:1017bc006fff3700e4cf50007a003200e8cf5000c2
:1017cc0064ff3a004c149000dc1490006c159000ef
:1017dc00fc159000f8b79f0089bf9f009abf9f002f
:1017ec00abbf9f000c1090009c1090002c1190002f
:1017fc00bc119000b4b79f00c5b79f00d6b79f002f
:10180c00e7b79f00bc2a9000e18f5200ea0032003b
:10181c000046eb007fb497008fbc97001fbd97006c
:10182c00afbd97000040e10001c8e10002d0e1002b
:10183c0003d8e10048ff34001cc0b3003fb297004e
:10184c00cfb297005fb39700efb397000400e100ad
:10185c000588e1000690e1000798e1003dff3500a6
:10186c000c4078004f0678004f05be004f04be00b8
:10187c000080fa00000006003dff3700e4cf500066
:10188c0030003200e8cf500032ff3a004c14900088
:10189c00dc1490006c159000fc159000f8b79f00bc
:1018ac0089bf9f009abf9f00abbf9f000c10900098
:1018bc009c1090002c119000bc119000b4b79f00ac
:1018cc00c5b79f00d6b79f00e7b79f00bc2a900012
:1018dc00e18f52009d0032000046eb007fb4970070
:1018ec008fbc97001fbd9700afbd97000040e10073
:1018fc0001c8e10002d0e10003d8e10016ff360078
:10190c001cc0b3003fb29700cfb297005fb39700f3
:10191c00efb397000400e1000588e1000690e100b8
:10192c000798e1000bff39000c4078004f06780057
:10193c004f05be004f04be000080fa0000000600f8
:10194c000bff37004c129000dc1290000c10900032
:10195c009c1090007fab97008fb397003c299000b0
:10196c00e10f51006a0032000046eb00800f52007c
:10197c00818f5a00f8fe36001cc0b300860f500051
:10198c00878f5800f3fe39000c4078004f06780022
:10199c004f05be004f04be000080fa000000060098
:1019ac00f3fe37004c129000dc1290000c109000eb
:1019bc009c1090007fab97008fb397003c29900050
:1019cc00e10f5100430032000046eb00800f520043
:1019dc00818f5a00e0fe34001cc0b300860f50000b
:1019ec00878f5800dbfe35000c4078004f067800de
:1019fc004f05be004f04be000080fa000000060038
:101a0c00dbfe37000046eb0080cf5100d2fe3100e8
:101a1c0002467800844f5000cefe3e000c40780009
:101a2c004f0678004f05be004f04be000080fa0040
:101a3c0000000600cefe37000046eb0080cf5100c0
:101a4c00c5fe3d0002467800844f5000c1fe3c00ac
:101a5c000c4078004f0678004f05be004f04be00c6
:101a6c000080fa0000000600c1fe37000046eb00c3
:101a7c00800f5100b8fe310001467800830f5000f2
:101a8c00b4fe3e000c4078004f0678004f05be00b7
:101a9c004f04be000080fa0000000600b4fe3700c0
:101aac000046eb00800f5100abfe3d000146780074
:101abc00830f5000a7fe3c000c4078004f067800c6
:101acc004f05be004f04be000080fa000000060067
:101adc00a7fe37000046eb00800f5200818f5a00a2
:101aec009dfe3d0002467800860f5000878f5800ff
:101afc0098fe3c000c4078004f0678004f05be0065
:101b0c004f04be000080fa000000060098fe37006b
:101b1c000046eb00800f5200818f5a008efe310080
:101b2c0002467800860f5000878f580089fe3e00d1
:101b3c000c4078004f0678004f05be004f04be00e5
:101b4c000080fa000000060089fe37000046eb001a
:101b5c007fb497008fbc97001fbd9700afbd970057
:101b6c000040e10001c8e10002d0e10003d8e1002f
:101b7c0079fe3100054678003fb29700cfb297004e
:101b8c005fb39700efb397000400e1000588e10014
:101b9c000690e1000798e1006efe3e000c407800d4
:101bac004f0678004f05be004f04be000080fa00bf
:101bbc00000006006efe37000046eb007fb4970075
:101bcc008fbc97001fbd9700afbd97000040e10090
:101bdc0001c8e10002d0e10003d8e1005efe3d0047
:101bec00054678003fb29700cfb297005fb39700dd
:101bfc00efb397000400e1000588e1000690e100d6
:101c0c000798e10053fe3c000c4078004f0678002a
:101c1c004f05be004f04be000080fa000000060015
:101c2c0053fe37000802be000a03be000cfb07007f
:101c3c000000e00047fe3d000802be000a03be00a3
:101c4c003fb09700cfb097005fb19700efb197000e
:101c5c0008fb07000000e0003efe35000c40780059
:101c6c004f0678004f05be004f04be000080fa00fe
:101c7c00000006003efe37000801be0002fb070014
:101c8c000000e00033fe3d000801be000a00be006b
:101c9c00fffa07000000e0002efe35000c40780033
:101cac004f0678004f05be004f04be000080fa00be
:101cbc00000006002efe37000088eb008000eb00d1
:101ccc00110098000041eb00215098002100980071
:101cdc003250980031009800425098004100980012
:101cec005250980051009800625098006100980082
:101cfc0072509800710098000258980001089800e2
:101d0c0012589800c3072100530898006022b800ad
:101d1c006033b80004109800151098002610980035
:101d2c0037109800441098005510980066109800d1
:101d3c0077109800011898002270980021189800cc
:101d4c006022b80034189800451898002278980042
:101d5c00327898006118980071189800012098004a
:101d6c0022c0980024209800352098004420980028
:101d7c005520980042c898007420980005289800b7
:101d8c008238210003002000122898002328980094
:101d9c001100200031289800620898007308980000
:101dac00d1838000c0089800000006000800fa00eb
:101dbc00889fbe008a9fbe008c1f780000067800aa
:101dcc002c189000e60f500019003e00e50f500053
:101ddc00370039008c1890002c7090006f40600018
:101dec00e24f50008901320032013e00e14f5000b9
:101dfc00530132007fb297008fba97001fbb970038
:101e0c00afbb97000c007800c1fd07000004e00098
:101e1c001a01320040002000201e98004f06780066
:101e2c004f05be004f04be000080fa000000060003
:101e3c00e70f500085003200e80f5000f7ff3a0022
:101e4c007c189000ec1890000001e800721e9800bd
:101e5c00810f5000f1ff39000000eb00701e98005c
:101e6c002c7890000080fb008000eb004c2190004f
:101e7c00dc21900000004100818049004026980040
:101e8c0051269800e00f5000e08f5800e3ff35001a
:101e9c0020002000201e98004f0678004f05be0041
:101eac004f04be000080fa0000000600e0ff37007f
:101ebc00e20f5000a5003200e40f5000d9003200b0
:101ecc00e10f5000d5ff3a007c189000ec18900000
:101edc000001e800721e9800810f50002e0039009e
:101eec000000eb00701e98003c199000cc1990007b
:101efc002c7890000080fb008000eb00000041007b
:101f0c008180490084382100840f5000e08f5800f4
:101f1c00040036006033b800361e9800471e980047
:101f2c006011b8008043eb008782fb000040eb009f
:101f3c000503e800f2824200060343000603460054
:101f4c0085024600dc089000828040000082fb0085
:101f5c00160242009448780061014100e08149007a
:101f6c00321e9800431e98000040e800954f500028
:101f7c00f4ff39008743e8003c78900080cf530091
:101f8c00e9ff39007c2090008c289000820f5000d3
:101f9c00838f5800e70036008c1890002c7090004e
:101fac006f406000e24f500020013200ce003e0036
:101fbc00e14f5000f70032000802be000a03be00d9
:101fcc000c00780052fd07000004e000a100320074
:101fdc004cc890000004e0009e0032002c209000c1
:101fec00bc209000e00f5000e08f5800ee00350050
:101ffc003c189000cc189000e00f5000e08f580077
:10200c00f60032007c1990000200e000fa003a0061
:10201c002c7990000281fb008001eb000200500043
:10202c0083805800402698005126980070002000ac
:10203c00201e98004f0678004f05be004f04be00ce
:10204c000080fa000000060079ff37007c18900031
:10205c00ec1890000001e800721e9800810f5000ef
:10206c006eff39000000eb00701e98003c199000c8
:10207c00cc1990002c7890000080fb008000eb00c5
:10208c00000041008180490084382100840f5000f9
:10209c00e08f5800040036006033b800361e9800fc
:1020ac00471e98006011b8008043eb008782fb004c
:1020bc000040eb000503e800f282420006034300f7
:1020cc000603460085024600dc0890008280400032
:1020dc000082fb0016024200944878006101410026
:1020ec00e0814900321e9800431e98000040e80031
:1020fc00954f5000f4ff39008743e8003c7890007e
:10210c0080cf5300e9ff39004c209000dc20900078
:10211c0002015000838158002c209000bc209000bc
:10212c00800f5100818f590078003e000000eb00b9
:10213c00201e98004f0678004f05be004f04be00cd
:10214c000080fa000000060039ff37007c18900070
:10215c00ec1890000001e800721e9800810f5000ee
:10216c00270039000000eb00701e98003c1990000d
:10217c00cc1990008043eb008782fb000040eb0001
:10218c000503e800f2824200060343000603460002
:10219c0085024600dc089000828040000082fb0033
:1021ac00160242009448780061014100e081490028
:1021bc00321e9800431e98000040e800954f5000d6
:1021cc00f4ff39008743e8003c78900080cf53003f
:1021dc00e9ff39002c7890000080fb008000eb00b8
:1021ec00020140008381480080382100800f51009b
:1021fc00e08f5900020036000000eb00201e980012
:10220c000c2090000000e800002698004f06780093
:10221c004f05be004f04be000080fa00000006000f
:10222c0003ff37000c2090000000e8000026980007
:10223c007c1890000000e800701e98004f06780093
:10224c004f05be004f04be000080fa0000000600df
:10225c00f7fe370048169800591698006a16980031
:10226c007b1698004f0678004f05be004f04be0049
:10227c000080fa0000000600edfe37007fb09700ea
:10228c008fb897001fb99700afb997004016980008
:10229c005116980062169800731698004f06780035
:1022ac004f05be004f04be000080fa00000006007f
:1022bc00dffe3700e44f50002a003200e84f500098
:1022cc00ccfe3a001102780091029000210390009c
:1022dc00b1039000f4b79f0085bf9f0096bf9f008d
:1022ec00a7bf9f00c3fe3700e44f5000250032000b
:1022fc00e84f500030ff3a00110478009104900030
:10230c0021059000b10590002bff37001c2a90008e
:10231c00ac2a90000201420083814a00820f5000d7
:10232c00838f5800bdfe39000000eb00201e980082
:10233c0080ff370010c0b30040ce980016ff370066
:10234c00114078000082fb008002eb006033b80083
:10235c00f4b79f0085bf9f0096bf9f00a7bf9f004b
:10236c00a4fe370011027800910290006033b8008f
:10237c00f4b79f0085bf9f0096bf9f00a7bf9f002b
:10238c009cfe370011047800910490006055b80051
:10239c0009ff3700114478000884fb008004eb002f
:1023ac006055b80004ff370040269800512698006d
:1023bc006000b800301e9800411e9800800020007c
:1023cc00201e98004f0678004f05be004f04be003b
:1023dc000080fa000000060095fe37002c78900073
:1023ec000080fb008000eb001c299000ac299000c1
:1023fc000000510081805900402698005126980019
:10240c0070002000201e98000aff37001100780091
:10241c006102b8006033b800f4b79f0085bf9f001d
:10242c0096bf9f00a7bf9f0072fe37001104780073
:10243c008004eb006055b800dffe3700407190005f
:10244c0082487800307a900094409800407990004f
:10245c00a2409800507a9000b440980060719000af
:10246c00c240980030199000c0199000481add0045
:10247c004811de0002017200c819de00d24098003b
:10248c0000799000e2409800107a9000f440980097
:10249c00205990008248980050099000cf91de009e
:1024ac00481add004811de0002017200c819de0076
:1024bc009248980050099000cf91de00a3489800f4
:1024cc0050099000cf91de004819de00b248980008
:1024dc0040c19000c248980020219000b02190008b
:1024ec00481add004811de0002017200d248980043
:1024fc0060c19000e248980070c29000f4489800c7
:10250c0000c990008250980040219000d02190008a
:10251c00481add004811de0002017200925098004a
:10252c0020c99000a250980030ca9000b450980076
:10253c0020d19000c250980010299000a029900042
:10254c00481add004811de0002017200c819de00d5
:10255c00d250980040d19000e250980050d2900098
:10256c00f4509800405990008258980060099000ef
:10257c00f0099000481add004811de0002017200db
:10258c00c819de009258980060599000a258980023
:10259c0070589000b058980020c8b300c0589800ec
:1025ac00d0010500ef02b000889fbe008a9fbe00dc
:1025bc008c9fbe008e1f78000004be0092f79f0017
:1025cc001ac0b300e34f5100c800360089067800ea
:1025dc005d407800e84f5000c4003e000004e0006d
:1025ec00c20032008000eb00211c98000040eb0080
:1025fc00317c9800012498006011b800321c9800be
:10260c00431c9800b9419000c819dd00a940900006
:10261c008180fb0081804100611c9800711c980036
:10262c006022b8006033b800441498005514980028
:10263c006614980077149800207c980021c0b30091
:10264c0021c4980040cc98006022b8004424980023
:10265c00552498001d04e000a10232004ac0b300ca
:10266c00004678008e3821008d01780089067800ac
:10267c009ff29700e5e79f008a45e8000a80fb007f
:10268c000080460010407800e14f5000df0032001f
:10269c009d0031008c84fb008b85fb000900e80059
:1026ac0000004000000044008b8546008b00e800d1
:1026bc001182fb008002eb00482bdd00c823de00fa
:1026cc00870373004823dd001b82fb008002eb00b4
:1026dc00040843004b40900089044400a054980027
:1026ec002879900002414000227c9800a8c09000fc
:1026fc0000c0400020c498000281fb0011000900ba
:10270c000207d80001005700cf80de00102c980083
:10271c00212c9800664545000c46e800934f1600a6
:10272c00d5ff3e008d047800830678006fe3970098
:10273c0096f79f008a80fb000a45e8000a80fb00a0
:10274c008a45e80081804400114678002c7498007a
:10275c000080440010407800e14f500081023200ac
:10276c00710131008b81fb00838144000300e80080
:10277c001082fb008002eb00482bdd00c823de003a
:10278c00870373004823dd000380e8001082fb0000
:10279c008002eb00c022dd00040020000603420092
:1027ac0087834a001382fb008002eb000602420082
:1027bc0087824a00041c9800e4c545008bf79f00f3
:1027cc006f476600e24f570085023200a1013e00c0
:1027dc00e14f570050003a008ff397000782fb003f
:1027ec0004824400144278000482fb008002eb0057
:1027fc006033b8000414980015149800261498003f
:10280c00371498000c04e0008f0135008c407800e0
:10281c000154a000217498000ff09700644540000b
:10282c008a80fb00818044000100e8001082fb00dc
:10283c008002eb00482bdd00c823de008703730009
:10284c004823dd000180e8001082fb008002eb00d1
:10285c00c022dd00040020000603420087834a00ea
:10286c001182fb008002eb000602420087824a00c4
:10287c00e38040001180fb008000eb00c800dd000d
:10288c0000002000040040008580480020249800af
:10289c0031249800f60b070070249800012c980046
:1028ac00644045000080fb00008044001080fb0069
:1028bc00302c9800654545001ff197008a4f510058
:1028cc003a0136000a80fb000080440013c0b300bc
:1028dc0090cf1100720032009d4678003d7c98002c
:1028ec001980fb00201c98000045eb000a40780082
:1028fc004f0778004f06be004f05be004f04be00c8
:10290c00ef02b10000000600e24f5000250032003b
:10291c00e34f5000090032001ac0b3000a4078009f
:10292c004f0778004f06be004f05be004f04be0097
:10293c00ef02b10000000600f3ff37008b85fb00af
:10294c008b8546002b4090003b429000d183800049
:10295c00110178000200e000efff32004822dd0098
:10296c000080fb000002420092007800810f5200b0
:10297c00720032000100e000e7ff32006400410009
:10298c000001780090007800810f52006b0032003b
:10299c00640040000100e000f9ff3a001ac0b300e7
:1029ac00deff37008b85fb008b8546002b409000ab
:1029bc003b429000d1838000110178000200e000be
:1029cc00d5ff32004822dd000080fb0000024200ef
:1029dc0092007800810f5200b40032000100e00038
:1029ec00cdff3200640041000001780090007800b7
:1029fc00810f5200ad003200640040000100e00085
:102a0c00f9ff3a001ac0b300c4ff37008b85fb00f6
:102a1c008b8546008b00780031427800914278001b
:102a2c00ab409000bb439000d2838000120378002f
:102a3c000600e00008003a00004078004f077800dc
:102a4c004f06be004f05be004f04be00ef02b100a2
:102a5c0000000600acff3700c83bdd008180fb00a6
:102a6c008183430096007800818f5300520032001e
:102a7c000100e000f0ff3200640043000003780026
:102a8c0090007800818f53004b00320064004000ae
:102a9c000100e000f9ff3a001ac0b3009fff3700b5
:102aac0088189000287090006f406000e24f500032
:102abc00850232006f023e00834f50000e00320040
:102acc007fa097008fa897001fa99700afa9970028
:102adc0040149800511498006214980073149800d4
:102aec009d4678003d7c98001980fb00201c9800c6
:102afc000045eb007dff3700114078000082fb00a1
:102b0c008002eb006033b800f4a79f0085af9f00f4
:102b1c0096af9f00a7af9f007fa097008fa897004c
:102b2c001fa99700afa99700401498005114980062
:102b3c006214980073149800e9ff37000100e0005c
:102b4c0075ff3200920090000100e00072ff32002d
:102b5c008c84fb000900e8000000400000004400e9
:102b6c00110878004b40900089044400a054980050
:102b7c002879900002414000227c9800a8c0900067
:102b8c0000c0400020c498000281fb001100090025
:102b9c000207d80001005700cf80de00102c9800ef
:102bac00212c9800664545000c46e800934f160012
:102bbc00b1fe3e00dbfe37000100e00056ff3200a4
:102bcc00160090000000e00053ff320090037800e4
:102bdc001203900016017800828f53000c00320013
:102bec000200e0004cff3200ec00430001037800cf
:102bfc0011017800828f530005003200ec804000f8
:102c0c000200e000f9ff3a001ac0b30043ff37009e
:102c1c000200e00040ff32000600e0003eff320000
:102c2c008c84fb00c828dd000482fb0084804000fb
:102c3c0056029000f3b79f00040001008900e800e1
:102c4c00818040008100440080087800ffb197002b
:102c5c000000e00030ff32004b409000890444003b
:102c6c00a05498002879900002414000227c9800e2
:102c7c00a8c0900000c0400020c498000281fb0056
:102c8c00110009000207d80001005700cf80de00b8
:102c9c00102c9800212c9800664545000c46e80045
:102cac00934f160074fe3e009efe37000100e000bc
:102cbc0019ff3200920090000100e00016ff320074
:102ccc008c84fb000900e800000040000000440078
:102cdc00010878004b40900089044400a0549800ef
:102cec002879900002414000227c9800a8c09000f6
:102cfc0000c0400020c498000281fb0011000900b4
:102d0c000207d80001005700cf80de00102c98007d
:102d1c00212c9800664545000c46e800934f1600a0
:102d2c0055fe3e007ffe3700e24f5000f0003200af
:102d3c00e34f5000f8fe3a000b80fb00008044008b
:102d4c00a0429000b0419000d08380001002780027
:102d5c001ac0b3000400e000e4fe3200c819dd0024
:102d6c008582fb008582410094017800838f52009c
:102d7c008d0132000300e000dcfe320064004200f2
:102d8c008c4078001ff197000002780090017800c9
:102d9c00838f520082013200640040000300e00087
:102dac00f9ff3a001ac0b300dcfe37008818900017
:102dbc00287090006f406000e24f50004e013200ce
:102dcc0038013e00e14f50000e0032003fa8970042
:102ddc00cfa897005fa99700efa99700401498001f
:102dec005114980062149800731498009d46780052
:102dfc003d7c98001980fb00201c98000045eb00de
:102e0c00bafe3700114078000082fb008002eb0014
:102e1c006033b800b4af9f00c5af9f00d6af9f0022
:102e2c00e7af9f003fa89700cfa897005fa9970036
:102e3c00efa9970040149800511498006214980060
:102e4c0073149800e9ff37008ff097000145470095
:102e5c0073fe3700e44f5700f0003200e84f570084
:102e6c00adfe3a008ff097000182fb008485440090
:102e7c001b4090000082fb008002eb006033b80026
:102e8c00c83bdd004835de00870375004833dd00a4
:102e9c00482dde0006037500c82add004825de003b
:102eac00850275004822dd00b4b79f00c5b79f00ae
:102ebc00d6b79f00e7b79f002b4090000082fb0025
:102ecc008002eb006033b8008603780005037800bd
:102edc00840278000002eb003fb09700cfb097005f
:102eec005fb19700efb19700040040008580480067
:102efc000601490087814900f0af9f0081b79f0010
:102f0c0092b79f00a3b79f009b4278000580fb00ff
:102f1c008000eb006011b800b0b79f00c1b79f00f4
:102f2c00d2b79f00e3b79f007faa97008fb297009c
:102f3c001fb39700afb397000002420081824a0092
:102f4c0002034b0083834b00b4a79f00c5a79f00cf
:102f5c00d6a79f00e7a79f00bb4290000580fb000f
:102f6c008000eb006011b800c811dd00480ade00db
:102f7c00830172004809dd004802de000201720084
:102f8c00c800dd000000eb003fa29700cfa2970025
:102f9c005fa39700efa397000000420081804a00d6
:102fac0002014b0083814b00f0af9f0081b79f0063
:102fbc0092b79f00a3b79f00cb4290000580fb0007
:102fcc008000eb006011b8000001be006000b8008a
:102fdc007faa97008fb297001fb39700afb39700eb
:102fec000000420081804a0002014b0083814b00ab
:102ffc00b0a79f00c1a79f00d2a79f00e3a79f0087
:10300c00db4290000580fb008000eb006011b800f3
:10301c00c809dd004802de00830172004801dd00b2
:10302c006000b8003fa29700cfa297005fa3970063
:10303c00efa397000000420081804a0002014b0080
:10304c0083814b00f0af9f0081b79f0092b79f0028
:10305c00a3b79f00eb4290000580fb008000eb00c3
:10306c006011b800800178000001eb006000b8002e
:10307c007faa97008fb297001fb39700afb397004a
:10308c000000420081804a0002014b0083814b000a
:10309c00b0b79f00c1b79f00d2b79f00e3b79f00a6
:1030ac007b4290000482fb008002eb006033b8008e
:1030bc00c823dd000003eb006022b80004024000ce
:1030cc008582480006034900878349000414980050
:1030dc00151498002614980037149800c9fd370071
:1030ec006bc0b300500020004100200095fd37005c
:1030fc000b80fb0000804400a0429000b041900087
:10310c00d0838000100278001ac0b3000400e000e5
:10311c00f6fd3200c819dd008582fb008582410076
:10312c0094017800838f5200950032000300e00078
:10313c00eefd3200640042008c4078001ff19700d5
:10314c000002780090017800838f52008a003200d0
:10315c00640040000300e000f9ff3a001ac0b3001d
:10316c00eefd37008b80fb008180440081017800ec
:10317c00334678009343780021429000b140900090
:10318c00d683800096017800004578000300e000ab
:10319c00d6fd3200c808dd000482fb00048240002a
:1031ac0093007800810f5200890032000100e0008a
:1031bc00cefd3200648041001ff197008001780041
:1031cc0090007800810f52008000320064004000b3
:1031dc000100e000f9ff3a001ac0b300cffd370040
:1031ec000b4578000a82fb00848244000502e8004b
:1031fc001482fb004823dd001582fb00040243000f
:10320c008002eb006033b800041498001514980089
:10321c0026149800371498007afd37000ff09700a9
:10322c000082fb00048244008402e8001583fb004a
:10323c008003eb00483ddd00c835de008b057500d2
:10324c004835dd008482e8001583fb008003eb0029
:10325c00c033dd00060020000a0543008b854b00bf
:10326c001483fb008003eb000a0343008b834b00a9
:10327c00630242001482fb008002eb00c822dd00d6
:10328c00040020000602420087824a006033b80026
:10329c0004149800151498002614980037149800fc
:1032ac0058fd3700e44f500023003200e84f500027
:1032bc00c6fe3a00110278009102900021039000a2
:1032cc00b1039000b4af9f00c5af9f00d6af9f0075
:1032dc00e7af9f003fa89700cfa897005fa9970082
:1032ec00efa99700401498005114980062149800ac
:1032fc0073149800bdfe3700110078006102b8000d
:10330c006033b800b4af9f00c5af9f00d6af9f002d
:10331c00e7af9f003fa89700cfa897005fa9970041
:10332c00efa997004014980051149800621498006b
:10333c0073149800adfe37001102780091029000d2
:10334c006033b800b4af9f00c5af9f00d6af9f00ed
:10335c00e7af9f003fa89700cfa897005fa9970001
:10336c00efa997004014980051149800621498002b
:10337c00731498009dfe37000146780092f79f0069
:10338c001ac0b3000300e00058fd32001400900096
:10339c000000e00055fd3200001c980006fd3700cf
:1033ac000146780092f79f001ac0b3000300e000ba
:1033bc004efd3200140090000000e0004bfd320086
:1033cc0010007800001c9800fbfc370092f79f005f
:1033dc001ac0b3000100e00044fd320093029000db
:1033ec000500e00041fd32001502780096019000c6
:1033fc0093007800810f52000e0032000100e000b3
:10340c003afd32006c8041001ff19700800178007a
:10341c0090007800810f5200050032006c004000d3
:10342c000100e000f9ff3a001ac0b3003bfd370081
:10343c0092f79f001ac0b3000100e0002bfd320090
:10344c000300e00029fd3200c838dd000c80fb00d1
:10345c0080804000d301900005007800030001003b
:10346c00001c98000000e00020fd3200287690003f
:10347c00d1fc3700e44f500023003200e84f5000dd
:10348c008ffd3a0011027800910290002103900008
:10349c00b1039000f4a79f0085af9f0096af9f00eb
:1034ac00a7af9f007fa097008fa897001fa9970038
:1034bc00afa997004014980051149800621498001a
:1034cc007314980086fd3700110078006102b80073
:1034dc006033b800f4a79f0085af9f0096af9f00a4
:1034ec00a7af9f007fa097008fa897001fa99700f8
:1034fc00afa99700401498005114980062149800da
:10350c007314980076fd3700110278009102900038
:10351c006033b800f4a79f0085af9f0096af9f0063
:10352c00a7af9f007fa097008fa897001fa99700b7
:10353c00afa9970040149800511498006214980099
:10354c007314980066fd37000000050021c0b3001d
:10355c0041409800b000900012c2b3009240980015
:10356c00900090000104010050419000d1c2b300c2
:10357c00814f5100ba003600e2c2b30042409800bd
:10358c00b00190000041eb0092419800b001900016
:10359c0054c0b300a4419800b0019000b24198000f
:1035ac00d2838000a2099000300190004341980022
:1035bc00d2838000a209900030019000c819de006f
:1035cc005341980030019000d04190006341980025
:1035dc003001900003c1b30073419800300190009a
:1035ec0023c8b300034998003001900013c4b30002
:1035fc00134998003001900003c7b3002349980089
:10360c003001900083c1e80033499800b00190006c
:10361c0022c3b300c2499800b001900074c3b30038
:10362c00d4499800b0019000e24998003001900014
:10363c006742520074499800b001900012c3b30065
:10364c0082519800b002900083c3b300935298004b
:10365c00b0029000a45298003002900033529800af
:10366c00b0019000c25198003001900043c3b300e8
:10367c0053519800d2838000b20990000300e000ff
:10368c007e00320032099000b000900012417800a8
:10369c00e2509800d183800031099000b000900076
:1036ac0012419000f2509800d183800031099000b3
:1036bc00b00090002241900082589800d183800085
:1036cc0031099000b000900042419000925898004f
:1036dc00d183800031099000b000900052419000dd
:1036ec00a2589800d183800031099000b00090005e
:1036fc0072419000b2589800d1838000310990003b
:10370c00b000900002499000c2589800d18380000c
:10371c0031099000b000900012499000d2589800e6
:10372c00d183800031099000b000900022499000b4
:10373c00e2589800d183800031099000b0009000cd
:10374c0032499000f2589800d183800031099000e2
:10375c00b00090004249900082609800d1838000b4
:10376c0031099000b000900062499000926098007e
:10377c00d183800031099000b00090007249900014
:10378c00a2609800d183800031019000b0009000bd
:10379c00b2609800d183800041019000b00090008d
:1037ac00c2609800d183800041019000b00090006d
:1037bc004811de00d2609800d18380005101900046
:1037cc00e1019000b0009000e2609800d18380008d
:1037dc0051019000e1019000b0009000481add000a
:1037ec004811de0002017200c819de00f260980078
:1037fc00d183800051019000e1019000b000900055
:10380c0083689800d183800051019000e101900001
:10381c00b00090004819de0092689800d2838000b6
:10382c00cf91de00b0009000a2689800b00090002c
:10383c00c81ade00481bdd004812de0004027300cb
:10384c00b4689800b0009000c3689800b000900075
:10385c004819de00d2689800900090000104010025
:10386c0021c0b30041409800b000900052c1b30099
:10387c0092409800900090000104010030019000eb
:10388c002161980030019000116198003001900086
:10389c00016198003001900071599800300190003e
:1038ac0061599800300190005159980030019000f6
:1038bc004159980030019000315998003001900026
:1038cc002159980030019000115998003001900056
:1038dc00015998003001900071519800300190000e
:1038ec0061519800d183800031019000b0009000ac
:1038fc00b2609800d183800041019000b00090002c
:10390c00c2609800d183800041019000b00090000b
:10391c004811de00d2609800d183800051019000e4
:10392c00e1019000b0009000e2609800d18380002b
:10393c0051019000e1019000b0009000481add00a8
:10394c004811de0002017200c819de00f260980016
:10395c00d183800051019000e1019000b0009000f3
:10396c0083689800d183800051019000e1019000a0
:10397c00b00090004819de0092689800d283800055
:10398c00cf91de00b0009000a2689800b0009000cb
:10399c00c81ade00481bdd004812de00040273006a
:1039ac00b4689800b0009000c3689800b000900014
:1039bc004819de00d26898009000900001040100c4
:1039cc00881f780000047800b80090002142900015
:1039dc008103780057407800d283800092027800ef
:1039ec000500e000880032004822dd000080fb006a
:1039fc000002420095017800830f52001300320040
:103a0c000300e0000800320064804200800278006d
:103a1c0090017800830f52000c00320064004000cb
:103a2c000300e000f9ff3a0000c4b30021c0b3006a
:103a3c0041449800804b7800980090000800780072
:103a4c00010001004f047800000006000300e000b4
:103a5c00f5ff320015009000a20190000300e00079
:103a6c001a003200a20290008001eb00950f1200a8
:103a7c0012003200a2029000430020001500e0006a
:103a8c0074003200a202900083824200950f120053
:103a9c000a003200a202900064834100838242003b
:103aac001500e0000500320086017800a2029000ab
:103abc0083824200950f1200f6ff3a00220290001a
:103acc00030242001400e0003b003a009201900017
:103adc000300e00065003200100378001202900031
:103aec008001eb00940f13001200320012029000c0
:103afc001400e0000f003200c300200012029000fe
:103b0c0003024200940f13000a00320012029000cc
:103b1c00ec824100030242001400e0000500320078
:103b2c00850178001202900003024200940f1300ea
:103b3c00f6ff3a0012029000030242001400e0006b
:103b4c0013003200120190008301410048419000a3
:103b5c0063415100e3804000c30190000300010069
:103b6c000004e00030003a0021c0b300414498004a
:103b7c00b8009000904098009800900008007800e1
:103b8c00010001004f04780000000600afff370071
:103b9c0020c0b3004044980010c4b300804b7800a0
:103bac009800900008007800010001004f04780094
:103bbc0000000600a5ff37002201900083014100a0
:103bcc004841900063415100e38040009301900014
:103bdc00030001000004e0009aff320020c0b30093
:103bec00404498003800900021c4b3001140980064
:103bfc009800900008007800010001004f04780044
:103c0c000000060091ff370030c4b30021c0b300a0
:103c1c0041449800804b7800980090000800780090
:103c2c000100010087ff370020c0b300404498001a
:103c3c003800900041c1b3001140980098009000ea
:103c4c0008007800010001004f0478000000060015
:103c5c007eff37008001eb0022029000030242003d
:103c6c001400e00099ff3200d3ff370020c0b300ee
:103c7c004044980040c4b300804b780098009000fa
:103c8c0008007800010001004f04780000000600d5
:103c9c006eff3700881f780000047800380390000e
:103cac008680e8009142780056407800d3838000eb
:103cbc00130278000400e00053003200c82add0033
:103ccc000080fb008082420014017800828f520039
:103cdc00130032000200e0000800320064004200d1
:103cec000002780010017800828f52000c00320024
:103cfc00640040000200e000f9ff3a0000c4b30089
:103d0c0021c0b30041449800004b7800980090000b
:103d1c0008007800010001004f0478000000060044
:103d2c000200e000f5ff3200140090001301900037
:103d3c000200e0003c003200900378001302900077
:103d4c000001eb00948f130012003200130290005c
:103d5c001400e0000f003200c2002000130290009b
:103d6c0002024200948f13000a00320013029000ea
:103d7c00ec024100020242001400e0000500320097
:103d8c00050178001302900002024200948f130088
:103d9c00f6ff3a0013029000020242001400e00009
:103dac000f0032009301900002814100320190001b
:103dbc000200010000c0e800404498003800900068
:103dcc008040eb00114098009800900008007800ab
:103ddc00010001004f04780000000600d0ff3700fe
:103dec0020c0b3004044980010c4b300004b7800ce
:103dfc009800900008007800010001004f04780042
:103e0c0000000600c6ff370030c4b30021c0b30069
:103e1c0041449800004b780098009000080078000e
:103e2c0001000100bcff370020c0b30040449800e3
:103e3c0040c4b300004b7800980090000800780054
:103e4c00010001004f04780000000600b4ff3700a9
:103e5c00b000900051417800e24f51003800320020
:103e6c000c003600e44f51003f0032001e003100c0
:103e7c0033002000d2838000330198000041eb0016
:103e8c008248780021c0b300414098009000900017
:103e9c00010401000204e0000a003a008001eb007a
:103eac00d2838000330198000041eb0082487800f7
:103ebc0021c0b30041409800900090000104010023
:103ecc00f4ff3700e14f51001300320022c2b3005f
:103edc008248780021c0b3004140980090009000c7
:103eec0001040100ebff3700e54f5100f7ff3a00ea
:103efc0053002000d2838000330198000041eb0076
:103f0c008248780021c0b300414098009000900096
:103f1c0001040100dfff370013002000d283800072
:103f2c00330198000041eb008248780021c0b300b7
:103f3c00414098009000900001040100d5ff37002b
:103f4c0023002000d2838000330198000041eb0055
:103f5c008248780021c0b300414098009000900046
:103f6c0001040100cbff370043002000d283800006
:103f7c00330198000041eb008248780021c0b30067
:103f8c00414098009000900001040100c1ff3700ef
:103f9c00b00090000041eb0092409800d18380006b
:103fac0031019000b0009000a240980031c0b300e5
:103fbc0041409800900090000104010022c0b30021
:103fcc004240980030019000114198009000900000
:103fdc00010401008159220063032000818141000a
:103fec00c2aa210082287800838f5000fdff3a007e
:103ffc00a1592200410098000000060040009000ea
:10400c00a1ab210001087800e1fc2100110098000f
:10401c00e1f221002100980061ce210021109800ce
:10402c0001e521001110980000000600889fbe00d9
:10403c008a9fbe00808080001210b500c08088006e
:10404c0081818000e18f5000060032000430ef00c7
:10405c001430ef001630ef004f05be004f04be00c9
:10406c0000000600cf80de002cf207000005be0029
:10407c00a2808000b380800049f2070080047800a1
:10408c00010478000900780088007800a08088007e
:10409c00b180880002002400c3692400fcf10700f1
:1040ac000000e0001e0034001430ef001630ef006a
:1040bc008004eb0009047800d2808000e38080004b
:1040cc000a00be001bf307000005be00f280800052
:1040dc00038180000802be0005007800840078008f
:1040ec0014f307000001be000a00be002cf207000a
:1040fc00e9f1070021808000010040002080880049
:10410c00015e2100810f5000d3ff36002180880012
:10411c004f05be004f04be0000000600d1ff370063
:10412c0002002400c3692c00090078008800780084
:10413c00d5f107000000e000dfff3d001430ef0078
:10414c001630ef008004eb0009047800daff37002a
:10415c00803e200090818800b08188008000200083
:10416c00c0818800e0818800800b2000d08188000d
:10417c0000b22200a0818800002f2300008288005a
:10418c000000060060818000c1818000810f50001a
:10419c000c003600d281800082804000810f5000dc
:1041ac0005003600e281800082804000810f5000c3
:1041bc000600360000000600803e200010828800b9
:1041cc00000006004230ec00000006004230ed001a
:1041dc0000000600889fbe008a9fbe008c9fbe0018
:1041ec008e1f780015060700c3e8a8000000000029
:1041fc000000000040a7a9000f080700d4ff07002b
:10420c0010002c0010638800620cf800420cf900be
:10421c00420cf800220cf9006230ef002230ef0063
:10422c002430ef002a30ef003030ef001000200077
:10423c007081880090c22500d0808800f0d82300bf
:10424c00e080880062ba2900f280880042b4230022
:10425c0002818800117080009072800012718000c1
:10426c004611de00c608de00e480600061006000dc
:10427c000000400080804000610061000080400030
:10428c006700600020828800aea32800ada428003f
:10429c00ba2b200008772100cb2b2000095e2100cf
:1042ac000ca62e0010828000908088008a0f50008f
:1042bc0024003e009b8088002080800010808800b5
:1042cc00f1182000810f500026003e00001920003c
:1042dc001080880010838000e10f5000270032000e
:1042ec001030ef003010e2002f003a0062eeab000d
:1042fc002d003200618180000000eb00808188007d
:10430c00720c2000828f500032003e000000e00052
:10431c0033003a002c30ef001430ef001630ef0071
:10432c0034cea900262cef00462cef00662cef00b3
:10433c00d006070010828000908088008a0f500001
:10434c00dcff3600880f5000dbff360098808800b9
:10435c002080800010808800f1182000810f500010
:10436c00daff3600890f5000daff3600198088001a
:10437c0010838000e10f5000d9ff3a0022818000a9
:10438c000200e000d6ff3200110009000286d800be
:10439c0080808800880f5000d2ff3600888088000b
:1043ac003010e200d1ff320061818000800c2000cf
:1043bc00808f5000d0ff32001000200062ceab0086
:1043cc00cdff320080818800720c2000828f50005b
:1043dc00ceff36002c30ef00e10f5000ceff3a003c
:1043ec0034cea800108080003061880030628800d4
:1043fc003063880070818000e10f50000f003200a4
:10440c00208280006700100000004000a2a228005b
:10441c008000410091007800116188008000470005
:10442c00910078001162880000804600100078002e
:10443c00106388008f060700beff370020828000c3
:10444c0000004000a2a228008000410091007800ea
:10445c00116188008000470091007800116288008b
:10446c00008046001000780010638800f1ff3700d0
:10447c0080818000e10f5000220132002230ef00d9
:10448c002430ef002830ef003e30ef004230ef00d8
:10449c002610ec0030818800fe0f50000c00360016
:1044ac002630ef006082800071828000810f500006
:1044bc001100320010002000108388002a10ec003c
:1044cc0050818800fe0f50004900320000000600a9
:1044dc008000eb0061005000e0805800fd0f5000a0
:1044ec00e08f5800230036006082800071828000cb
:1044fc00810f5000efff3a005010e300edff3a003f
:10450c005210e300ebff3a00a1828000b2828000df
:10451c00810f5100e7ff3a00c2828000810f5100e9
:10452c00e4ff3a00d2828000810f5100e1ff3a0093
:10453c00e2828000810f5100deff3a00f28280009f
:10454c00810f5100dbff3a0002838000810f510084
:10455c00d8ff3a00810f5000d6ff3a006230ef00ce
:10456c002a10ec0050818800fe0f5000d7ff3a0053
:10457c001f0037000006010068003700d00037002c
:10458c00bd003700d8ff3700a9003700d6ff370031
:10459c0095003700d4ff37004e0037003b00370042
:1045ac00d1ff3700d0ff3700cfff3700ceff3700e9
:1045bc0024003700ccff3700cbff3700caff370091
:1045cc00c9ff37000d003700c7ff3700c6ff3700a3
:1045dc00c5ff3700c4ff370071003700c2ff37003a
:1045ec00c1ff3700c0ff3700bfff37005c0037004a
:1045fc008efe07002a30ef000000060012708000cb
:10460c009072800011718000c608de004611de0039
:10461c006401610061006000000040000000410086
:10462c00e18060000100400067006000e0828800cb
:10463c006082800071828000810f50009dff3a00e3
:10464c00adff3700127080009072800011718000f5
:10465c00c608de004611de006401610061006000e6
:10466c000000400000004100e180600001004000bb
:10467c0067006000d08288006082800071828000b8
:10468c00810f50008bff3a009bff370012708000a7
:10469c009072800011718000c608de004611de00a9
:1046ac0064016100610060000000400000004100f6
:1046bc00e18060000100400067006000c08288005b
:1046cc006082800071828000810f500079ff3a0077
:1046dc0089ff370012708000907280001171800089
:1046ec00c608de004611de00640161006100600056
:1046fc000000400000004100e1806000010040002b
:10470c0067006000b0828800608280007182800047
:10471c00810f500067ff3a0077ff3700127080005e
:10472c009072800011718000c608de004611de0018
:10473c006401610061006000000040000000410065
:10474c00e18060000100400067006000608288002a
:10475c0071828000810f500056ff3a0066ff3700cf
:10476c00127080009072800011718000c608de000b
:10477c004611de0064016100610060000000400031
:10478c0000004100e1806000010040006700600013
:10479c0000838800608280007182800054ff3700a3
:1047ac00127080009072800011718000c608de00cb
:1047bc004611de00640161006100600000004000f1
:1047cc0000004100e18060000100400067006000d3
:1047dc00f08288006082800071828000810f50001e
:1047ec0034ff3a0044ff3700127080009072800052
:1047fc0011718000c608de004611de006401610004
:10480c00610060000000400000004100e180600099
:10481c000100400067006000a08288006082800078
:10482c0071828000810f500022ff3a0032ff370066
:10483c00127080009072800011718000c608de003a
:10484c004611de0064016100610060000000400060
:10485c0000004100e1806000010040006700600042
:10486c00908288006082800071828000810f5000ed
:10487c0010ff3a0020ff3700127080009072800009
:10488c0011718000c608de004611de006401610073
:10489c00610060000000400000004100e180600009
:1048ac000100400067006000808288006082800008
:1048bc0071828000810f5000fefe3a000eff37001f
:1048cc00127080009072800011718000c608de00aa
:1048dc004611de00640161006100600000004000d0
:1048ec0000004100e180600081004000e780600032
:1048fc007182880060828000810f5000edfe3a00ca
:10490c00fdfe37002230ec003e30ec001dfe0700af
:10491c00dffe37000003f8000e10f9000203f80068
:10492c000810f9000403f8000a10f9000603f80057
:10493c000c10f90052053700107080009172800045
:10494c00127180004611de004600de00640060003b
:10495c00e180600081804000010040006101610045
:10496c000200400067006000208288001170800007
:10497c00c808de00e180600031828800117180007f
:10498c00c608de00e1806000418288001100200032
:10499c00927280000101610052828800810f5000e8
:1049ac00010032000000060080818000810f500061
:1049bc00fcff3a002810ec00408188002c30ec0001
:1049cc00810f5000060036002210f8002410f90068
:1049dc002230ef00200020004081880000000600fb
:1049ec002430ef0000000600f081800091818000ef
:1049fc00810f500009003600a281800082804000a7
:104a0c00810f50000400360001828000810f50009d
:104a1c000400360000000600803e20001082880052
:104a2c000000060000805000108288000000060084
:104a3c0011002000110898008000eb00010898007c
:104a4c0000000600e4874700889fbe008a9fbe00d6
:104a5c008c9fbe008e1f780000047800980c90008c
:104a6c005ac5b3003b002000e18f540015003a00fa
:104a7c0058009000b0009000010001000004e0001c
:104a8c002300320008089000e20f500008013200a9
:104a9c0058003e000000e000a0003a004a54980084
:104aac005054980058009000100178008a4078000b
:104abc0002000100090c9800980c9000e18f540042
:104acc00ebff32000900e00014003a00580090009f
:104adc00a0009000010001000004e0000f00320073
:104aec00580090009000900001000100f800900028
:104afc00e28f5000b800320017003e000100e000c9
:104b0c0064003a0051c5b300814f50001c013200c3
:104b1c00980c90000900e000ecff32006a0644009b
:104b2c00d0838000c00890000100e0000400320037
:104b3c00c0089000a1189000e48f50004e01320084
:104b4c004f0778004f06be004f05be004f04be0055
:104b5c004f00b10000000600e48f500081003200cd
:104b6c0086003900e58f5000040032000000eb0095
:104b7c0070049800980c9000e6ff3700c850900025
:104b8c0052c5b30082cf500011003200e2cf50006a
:104b9c000f003200814f500011003a003800900095
:104bac0010407800fa4f5000fa003e000080fb00e5
:104bbc00c800900000004000008040009000780089
:104bcc000800780001000100980c9000d1ff37001c
:104bdc0081c0ea0041549800814f5000efff320031
:104bec0031c1b30008007800f4fc0700980c900069
:104bfc00c8ff3700e40f5000860032008d003900ea
:104c0c00e50f5000050032000000eb00100c98007e
:104c1c00700498008004eb00acff3700c850900083
:104c2c0050c5b30080cf50000d003200e2cf5000d1
:104c3c000b003200580090001001780002000100b7
:104c4c0058009000d0009000010001000000eb0023
:104c5c00100c9800700498008004eb009bff370048
:104c6c0081c0ea004154980058009000100178006f
:104c7c000200010058009000d000900001000100db
:104c8c000000eb00100c9800700498008004eb00fe
:104c9c008eff3700e18f5000b4ff3a000004e000b3
:104cac001b003200d8409000814f5000de003e00c7
:104cbc0052c5b300824040004154980040449800d3
:104ccc00595498002100200071049800824078000b
:104cdc00814f500002003200e24f50008cff3a002e
:104cec0070f0b70020002000708388004000200086
:104cfc0070049800980c900086ff370051c5b300e3
:104d0c000207210012417800814f5100ce00320081
:104d1c0079049800980c90007eff3700e10f50004a
:104d2c00b9ff3a00c8409000485090000140400044
:104d3c0040549800580090001001780002000100c7
:104d4c00484090008a4f500086003200e24f5000dd
:104d5c008400320020002000000c9800980c900079
:104d6c0041ff37000004e000e4ff3a00708380004c
:104d7c0070049800980c900066ff3700c8509000a3
:104d8c0080c0400041549800d85090008180fb00b6
:104d9c00380190008100410080487800d850900084
:104dac008140e800515498004841900082cf500057
:104dbc004e00390051c5b300814f50007a003200cb
:104dcc00e24f500078003200500020007004980030
:104ddc00980c90004fff3700c848900080cf5000cf
:104dec00cbff3a00485090000140400040549800de
:104dfc0050c5b30080cf500083003200e2cf50008a
:104e0c00810032003000200070049800980c900053
:104e1c0040ff370058009000100178008040eb00f4
:104e2c000200010070838000000c9800980c900028
:104e3c000dff3700d85090008180fb0038009000a7
:104e4c0081004000485090001140400040549800b0
:104e5c005800900010017800914078000200010089
:104e6c00d85090000180fb008001e8004841900080
:104e7c000281fb00828f5100280035003801900020
:104e8c0000004100104078008a4f5000550032005d
:104e9c00e24f50005300320050002000000c9800ec
:104eac008140e80051549800980c9000eefe3700b9
:104ebc00c848900048509000014040004054980071
:104ecc005800900010017800020001004848900042
:104edc008a4f50001d003200e24f50001b00320080
:104eec000b0c9800980c9000dffe370051c5b300f6
:104efc00814f500002003200e24f5000c1ff3a00d7
:104f0c0070f0b70030002000708388004000200053
:104f1c0070049800980c9000fefe37003801900049
:104f2c0000004100104078008a4f500025003200ec
:104f3c00e24f5000230032000b0c98008140e80037
:104f4c0051549800980c9000c7fe370070f0b700d1
:104f5c007b83880040002000000c9800980c900087
:104f6c00c1fe370070f0b70020002000708388006d
:104f7c0040002000000c9800980c9000bafe3700fe
:104f8c00405498001000200070049800980c900079
:104f9c00e0fe370011c2b3000800780007fc0700e0
:104fac00980c9000dbfe370070f0b700500020002a
:104fbc00708388004000200070049800980c9000ca
:104fcc00d4fe370070f0b7007b83880040002000cf
:104fdc00000c98008140e80051549800980c900007
:104fec00a1fe370070f0b7005000200070838800dd
:104ffc0040002000000c98008140e80051549800bb
:10500c00980c900098fe37000007210001487800aa
:10501c00300020007083880040002000700498004d
:10502c00980c9000bbfe3700790498003800900073
:10503c000048eb0051c1b30008007800dffb07000b
:10504c00980c9000b3fe3700d8409000814f500070
:10505c00f5ff3e0052c5b300824040004154980019
:10506c004044980059549800200020007004980087
:10507c00980c9000a7fe370040089000a0c4900048
:10508c008984fb00e384440058009000c000900029
:10509c00010001000080fb00808f540007003d00e0
:1050ac00d083800040099000c008900072199000d5
:1050bc00e1189000810f51000d00310090838000a9
:1050cc00a183800061004000e0804800908388004c
:1050dc00a18388004f0778004f06be004f05be0025
:1050ec004f04be004f00b100000006009afe3700ce
:1050fc00400890008000eb00711898005800900058
:10510c001001780021c0b30002000100580090008b
:10511c00d1838000c1089000a1c0900010017800dc
:10512c000200010058009000c8489000100178005f
:10513c000200010058009000d1838000c10890004b
:10514c0081209000100178000200010058009000ae
:10515c00d1838000c108900081209000c808de0037
:10516c001001780002000100d0838000c00990007b
:10517c00c00890004009900023c29000c8499000dc
:10518c008341420083c1e8008120900081c041002e
:10519c0092c5900081c545000007eb008004eb0030
:1051ac008e00e80081bf9f00720747008186400097
:1051bc00400890000d00400010804400104578001d
:1051cc001c007800100178008a4078000200010071
:1051dc008ac545008904e800d0838000c00890008f
:1051ec008e8040009180fb00818f5400f0ff3900cd
:1051fc000fbf9700c0089000b17890008180fb0031
:10520c00810f5700e5ff3900e2cf55000b0032004b
:10521c0058009000100178008b40780002000100cb
:10522c004f0778004f06be004f05be004f04be006e
:10523c004f00b1000000060047fe3700dbcfb30083
:10524c0058009000100178008b407800020001009b
:10525c00f3ff370031009800524098004348980003
:10526c008152220001087800e151220011009800bf
:10527c008000eb00110898007100980000000600f7
:10528c00881f780000047800380190008280e800c4
:10529c001180fb004800dd00124190000281fb00f0
:1052ac000200400010037800d383800013029000aa
:1052bc000001eb00940f1300120032001302900057
:1052cc001400e0000f003200c20020001302900016
:1052dc0002024200940f13000a00320013029000e5
:1052ec00ec024100020242001400e0000500320012
:1052fc00050178001302900002024200940f130083
:10530c00f6ff3a0013029000020242001400e00083
:10531c000e00320093019000028141003201900096
:10532c000200010000c0e8004044980038009000e2
:10533c008040eb0011409800980090000800780025
:10534c00010001004f0478000000060011c4b300f6
:10535c000800780019fb07004f04780000000600d5
:10536c00faff3700881f780000047800b80090001e
:10537c00214190004811dd00114090000080fb009d
:10538c000000410010037800d383800013029000ca
:10539c000001eb00940f1300120032001302900076
:1053ac001400e0000f003200c20020001302900035
:1053bc0002024200940f13000a0032001302900004
:1053cc00ec024100020242001400e0000500320031
:1053dc00050178001302900002024200940f1300a2
:1053ec00f6ff3a0013029000020242001400e000a3
:1053fc0018003200930190008281410048419000d6
:10540c0063415100e3804000c301900003000100a0
:10541c000004e00009003a0021c0b30041449800a8
:10542c00b800900090409800980090000800780018
:10543c00010001004f0478000000060041c1b300d8
:10544c0008007800ddfa07004f0478000000060021
:10545c00faff370011c4b30008007800d7fa070030
:10546c004f04780000000600f4ff3700881f780016
:10547c003001900002047800b24290004243900048
:10548c000582fb008483e800d04190008381fb00ff
:10549c0051c1b300838f53000c003e00a241900019
:1054ac00c819dd00924090008180fb008181410091
:1054bc00e24f530008003200e44f53003300320037
:1054cc0041c1b300e14f530025003200bbfa070085
:1054dc004f047800000006000400e00017003200c2
:1054ec008000eb008180e800010141001349780045
:1054fc003001900001014100330378004833de0095
:10550c0016419800810f52000b00360030019000bc
:10551c008180e800010141001349780030019000be
:10552c0001014100330378004833de001641980036
:10553c00810f5200f5ff3e003004900085c2e80058
:10554c00454098008040eb0011449800900090007a
:10555c00010001004f04780000000600deff370058
:10556c000400e000f5ff32008000eb000101410077
:10557c0033437800264198008100e800810f5200e7
:10558c00edff360030019000f8ff37000400e0001a
:10559c00eaff32008000eb00010141001344780067
:1055ac00284198003001900001014100130378005c
:1055bc0093039000483cdd004833de000603740082
:1055cc00c83bde0036419800e4804000300190007a
:1055dc0001014100234390000649780030019000fe
:1055ec00010141003344900018419800e4814100ce
:1055fc00810f5200d0ff360030019000e6ff3700db
:10560c00889fbe008a1f780000057800ba049000bd
:10561c00890278009943900029429000ca41900079
:10562c00e4c15100394190008381fb000283fb00ef
:10563c00110009008681d800010378000600e00003
:10564c0009003a004822dd008783fb000702420074
:10565c00e24f51004b003200e44f51000800320081
:10566c00e14f51002e00320041c1b3000a00780016
:10567c0052fa07004f0578004f04be0000000600e8
:10568c00c219de001b003200e48044000001eb0074
